{
  "contractName": "DataFactModel",
  "abi": [
    {
      "inputs": [],
      "stateMutability": "nonpayable",
      "type": "constructor"
    },
    {
      "anonymous": false,
      "inputs": [
        {
          "indexed": true,
          "internalType": "address",
          "name": "user",
          "type": "address"
        },
        {
          "indexed": false,
          "internalType": "string[]",
          "name": "queryDimensions",
          "type": "string[]"
        }
      ],
      "name": "QueryCheck",
      "type": "event"
    },
    {
      "inputs": [],
      "name": "allowedDimensions",
      "outputs": [
        {
          "internalType": "bool",
          "name": "ProductName",
          "type": "bool"
        },
        {
          "internalType": "bool",
          "name": "Category",
          "type": "bool"
        },
        {
          "internalType": "bool",
          "name": "Supplier",
          "type": "bool"
        },
        {
          "internalType": "bool",
          "name": "ExpirationDate",
          "type": "bool"
        },
        {
          "internalType": "bool",
          "name": "MonthOfSale",
          "type": "bool"
        },
        {
          "internalType": "bool",
          "name": "QuarterOfSale",
          "type": "bool"
        },
        {
          "internalType": "bool",
          "name": "BimonthOfSale",
          "type": "bool"
        },
        {
          "internalType": "bool",
          "name": "YearOfSale",
          "type": "bool"
        },
        {
          "internalType": "bool",
          "name": "City",
          "type": "bool"
        },
        {
          "internalType": "bool",
          "name": "Province",
          "type": "bool"
        },
        {
          "internalType": "bool",
          "name": "Region",
          "type": "bool"
        },
        {
          "internalType": "bool",
          "name": "TypeOfSale",
          "type": "bool"
        }
      ],
      "stateMutability": "view",
      "type": "function",
      "constant": true
    },
    {
      "inputs": [
        {
          "internalType": "string[]",
          "name": "queryDimensions",
          "type": "string[]"
        }
      ],
      "name": "isQueryAllowed",
      "outputs": [
        {
          "internalType": "bool",
          "name": "",
          "type": "bool"
        }
      ],
      "stateMutability": "view",
      "type": "function",
      "constant": true
    },
    {
      "inputs": [
        {
          "internalType": "string[]",
          "name": "queryDimensions",
          "type": "string[]"
        }
      ],
      "name": "executeQuery",
      "outputs": [],
      "stateMutability": "nonpayable",
      "type": "function"
    }
  ],
  "bytecode": "0x608060405234801561001057600080fd5b5060016000800160006101000a81548160ff02191690831515021790555060016000800160016101000a81548160ff02191690831515021790555060016000800160026101000a81548160ff02191690831515021790555060016000800160046101000a81548160ff02191690831515021790555060016000800160056101000a81548160ff02191690831515021790555060016000800160066101000a81548160ff02191690831515021790555060016000800160076101000a81548160ff02191690831515021790555060016000800160086101000a81548160ff02191690831515021790555060016000800160096101000a81548160ff021916908315150217905550600160008001600a6101000a81548160ff021916908315150217905550600160008001600b6101000a81548160ff0219169083151502179055506113fb8061015f6000396000f3fe608060405234801561001057600080fd5b50600436106100415760003560e01c80630a6200b714610046578063452b79ca14610076578063e4bf06301461009f575b600080fd5b610060600480360381019061005b9190610b39565b6100bb565b60405161006d91906110c2565b60405180910390f35b61007e6108c7565b6040516100969c9b9a999897969594939291906110dd565b60405180910390f35b6100b960048036038101906100b49190610b39565b6109b1565b005b600080600090505b82518110156108bc576040516020016100db90611061565b6040516020818303038152906040528051906020012083828151811061012a577f4e487b7100000000000000000000000000000000000000000000000000000000600052603260045260246000fd5b60200260200101516040516020016101429190610fa2565b6040516020818303038152906040528051906020012014801561017457506000800160009054906101000a900460ff16155b156101835760009150506108c2565b60405160200161019290610fb9565b604051602081830303815290604052805190602001208382815181106101e1577f4e487b7100000000000000000000000000000000000000000000000000000000600052603260045260246000fd5b60200260200101516040516020016101f99190610fa2565b6040516020818303038152906040528051906020012014801561022b57506000800160019054906101000a900460ff16155b1561023a5760009150506108c2565b6040516020016102499061104c565b60405160208183030381529060405280519060200120838281518110610298577f4e487b7100000000000000000000000000000000000000000000000000000000600052603260045260246000fd5b60200260200101516040516020016102b09190610fa2565b604051602081830303815290604052805190602001201480156102e257506000800160029054906101000a900460ff16155b156102f15760009150506108c2565b60405160200161030090610ff8565b6040516020818303038152906040528051906020012083828151811061034f577f4e487b7100000000000000000000000000000000000000000000000000000000600052603260045260246000fd5b60200260200101516040516020016103679190610fa2565b6040516020818303038152906040528051906020012014801561039957506000800160049054906101000a900460ff16155b156103a85760009150506108c2565b6040516020016103b790610fe3565b60405160208183030381529060405280519060200120838281518110610406577f4e487b7100000000000000000000000000000000000000000000000000000000600052603260045260246000fd5b602002602001015160405160200161041e9190610fa2565b6040516020818303038152906040528051906020012014801561045057506000800160059054906101000a900460ff16155b1561045f5760009150506108c2565b60405160200161046e90611022565b604051602081830303815290604052805190602001208382815181106104bd577f4e487b7100000000000000000000000000000000000000000000000000000000600052603260045260246000fd5b60200260200101516040516020016104d59190610fa2565b6040516020818303038152906040528051906020012014801561050757506000800160069054906101000a900460ff16155b156105165760009150506108c2565b60405160200161052590611037565b60405160208183030381529060405280519060200120838281518110610574577f4e487b7100000000000000000000000000000000000000000000000000000000600052603260045260246000fd5b602002602001015160405160200161058c9190610fa2565b604051602081830303815290604052805190602001201480156105be57506000800160079054906101000a900460ff16155b156105cd5760009150506108c2565b6040516020016105dc9061108b565b6040516020818303038152906040528051906020012083828151811061062b577f4e487b7100000000000000000000000000000000000000000000000000000000600052603260045260246000fd5b60200260200101516040516020016106439190610fa2565b6040516020818303038152906040528051906020012014801561067557506000800160089054906101000a900460ff16155b156106845760009150506108c2565b6040516020016106939061100d565b604051602081830303815290604052805190602001208382815181106106e2577f4e487b7100000000000000000000000000000000000000000000000000000000600052603260045260246000fd5b60200260200101516040516020016106fa9190610fa2565b6040516020818303038152906040528051906020012014801561072c57506000800160099054906101000a900460ff16155b1561073b5760009150506108c2565b60405160200161074a90610fce565b60405160208183030381529060405280519060200120838281518110610799577f4e487b7100000000000000000000000000000000000000000000000000000000600052603260045260246000fd5b60200260200101516040516020016107b19190610fa2565b604051602081830303815290604052805190602001201480156107e3575060008001600a9054906101000a900460ff16155b156107f25760009150506108c2565b60405160200161080190611076565b60405160208183030381529060405280519060200120838281518110610850577f4e487b7100000000000000000000000000000000000000000000000000000000600052603260045260246000fd5b60200260200101516040516020016108689190610fa2565b6040516020818303038152906040528051906020012014801561089a575060008001600b9054906101000a900460ff16155b156108a95760009150506108c2565b80806108b49061130d565b9150506100c3565b50600190505b919050565b60008060000160009054906101000a900460ff16908060000160019054906101000a900460ff16908060000160029054906101000a900460ff16908060000160039054906101000a900460ff16908060000160049054906101000a900460ff16908060000160059054906101000a900460ff16908060000160069054906101000a900460ff16908060000160079054906101000a900460ff16908060000160089054906101000a900460ff16908060000160099054906101000a900460ff169080600001600a9054906101000a900460ff169080600001600b9054906101000a900460ff1690508c565b6109ba816100bb565b6109f9576040517f08c379a00000000000000000000000000000000000000000000000000000000081526004016109f090611197565b60405180910390fd5b3373ffffffffffffffffffffffffffffffffffffffff167f4d71e3f38bf01e8ea82714e1b3bd91217fd29e3353662288c2a88bbd4ecd4d5382604051610a3f91906110a0565b60405180910390a250565b6000610a5d610a58846111e8565b6111b7565b9050808382526020820190508260005b85811015610a9d5781358501610a838882610b0f565b845260208401935060208301925050600181019050610a6d565b5050509392505050565b6000610aba610ab584611214565b6111b7565b905082815260208101848484011115610ad257600080fd5b610add8482856112cb565b509392505050565b600082601f830112610af657600080fd5b8135610b06848260208601610a4a565b91505092915050565b600082601f830112610b2057600080fd5b8135610b30848260208601610aa7565b91505092915050565b600060208284031215610b4b57600080fd5b600082013567ffffffffffffffff811115610b6557600080fd5b610b7184828501610ae5565b91505092915050565b6000610b868383610c12565b905092915050565b6000610b9982611254565b610ba38185611277565b935083602082028501610bb585611244565b8060005b85811015610bf15784840389528151610bd28582610b7a565b9450610bdd8361126a565b925060208a01995050600181019050610bb9565b50829750879550505050505092915050565b610c0c816112b5565b82525050565b6000610c1d8261125f565b610c278185611288565b9350610c378185602086016112da565b610c40816113b4565b840191505092915050565b6000610c568261125f565b610c6081856112aa565b9350610c708185602086016112da565b80840191505092915050565b6000610c896008836112aa565b91507f43617465676f72790000000000000000000000000000000000000000000000006000830152600882019050919050565b6000610cc96006836112aa565b91507f526567696f6e00000000000000000000000000000000000000000000000000006000830152600682019050919050565b6000610d09600d836112aa565b91507f517561727465724f6653616c65000000000000000000000000000000000000006000830152600d82019050919050565b6000610d49600b836112aa565b91507f4d6f6e74684f6653616c650000000000000000000000000000000000000000006000830152600b82019050919050565b6000610d896008836112aa565b91507f50726f76696e63650000000000000000000000000000000000000000000000006000830152600882019050919050565b6000610dc9600d836112aa565b91507f42696d6f6e74684f6653616c65000000000000000000000000000000000000006000830152600d82019050919050565b6000610e09600a836112aa565b91507f596561724f6653616c65000000000000000000000000000000000000000000006000830152600a82019050919050565b6000610e496008836112aa565b91507f537570706c6965720000000000000000000000000000000000000000000000006000830152600882019050919050565b6000610e89600b836112aa565b91507f50726f647563744e616d650000000000000000000000000000000000000000006000830152600b82019050919050565b6000610ec9602483611299565b91507f517565727920636f6e7461696e7320646973616c6c6f7765642064696d656e7360008301527f696f6e73000000000000000000000000000000000000000000000000000000006020830152604082019050919050565b6000610f2f600a836112aa565b91507f547970654f6653616c65000000000000000000000000000000000000000000006000830152600a82019050919050565b6000610f6f6004836112aa565b91507f43697479000000000000000000000000000000000000000000000000000000006000830152600482019050919050565b6000610fae8284610c4b565b915081905092915050565b6000610fc482610c7c565b9150819050919050565b6000610fd982610cbc565b9150819050919050565b6000610fee82610cfc565b9150819050919050565b600061100382610d3c565b9150819050919050565b600061101882610d7c565b9150819050919050565b600061102d82610dbc565b9150819050919050565b600061104282610dfc565b9150819050919050565b600061105782610e3c565b9150819050919050565b600061106c82610e7c565b9150819050919050565b600061108182610f22565b9150819050919050565b600061109682610f62565b9150819050919050565b600060208201905081810360008301526110ba8184610b8e565b905092915050565b60006020820190506110d76000830184610c03565b92915050565b6000610180820190506110f3600083018f610c03565b611100602083018e610c03565b61110d604083018d610c03565b61111a606083018c610c03565b611127608083018b610c03565b61113460a083018a610c03565b61114160c0830189610c03565b61114e60e0830188610c03565b61115c610100830187610c03565b61116a610120830186610c03565b611178610140830185610c03565b611186610160830184610c03565b9d9c50505050505050505050505050565b600060208201905081810360008301526111b081610ebc565b9050919050565b6000604051905081810181811067ffffffffffffffff821117156111de576111dd611385565b5b8060405250919050565b600067ffffffffffffffff82111561120357611202611385565b5b602082029050602081019050919050565b600067ffffffffffffffff82111561122f5761122e611385565b5b601f19601f8301169050602081019050919050565b6000819050602082019050919050565b600081519050919050565b600081519050919050565b6000602082019050919050565b600082825260208201905092915050565b600082825260208201905092915050565b600082825260208201905092915050565b600081905092915050565b60008115159050919050565b6000819050919050565b82818337600083830152505050565b60005b838110156112f85780820151818401526020810190506112dd565b83811115611307576000848401525b50505050565b6000611318826112c1565b91507fffffffffffffffffffffffffffffffffffffffffffffffffffffffffffffffff82141561134b5761134a611356565b5b600182019050919050565b7f4e487b7100000000000000000000000000000000000000000000000000000000600052601160045260246000fd5b7f4e487b7100000000000000000000000000000000000000000000000000000000600052604160045260246000fd5b6000601f19601f830116905091905056fea2646970667358221220d2c54d9b499957603eaf86833633cefb4708814cca9eb0e91eb62d34b8b6ff4564736f6c63430008000033",
  "immutableReferences": {},
  "source": "// SPDX-License-Identifier: MIT\r\npragma solidity ^0.8.0;\r\n\r\ncontract DataFactModel {\r\n    struct Dimensions {\r\n        bool ProductName;\r\n        bool Category;\r\n        bool Supplier;\r\n        bool ExpirationDate;\r\n        bool MonthOfSale;\r\n        bool QuarterOfSale;\r\n        bool BimonthOfSale;\r\n        bool YearOfSale;\r\n        bool City;\r\n        bool Province;\r\n        bool Region;\r\n        bool TypeOfSale;\r\n    }\r\n\r\n    Dimensions public allowedDimensions;\r\n\r\n    event QueryCheck(address indexed user, string[] queryDimensions);\r\n\r\n    constructor() {\r\n        allowedDimensions.ProductName = true;\r\n        allowedDimensions.Category = true;\r\n        allowedDimensions.Supplier = true;\r\n        allowedDimensions.MonthOfSale = true;\r\n        allowedDimensions.QuarterOfSale = true;\r\n        allowedDimensions.BimonthOfSale = true;\r\n        allowedDimensions.YearOfSale = true;\r\n        allowedDimensions.City = true;\r\n        allowedDimensions.Province = true;\r\n        allowedDimensions.Region = true;\r\n        allowedDimensions.TypeOfSale = true;\r\n    }\r\n\r\n    function isQueryAllowed(string[] memory queryDimensions) public view returns (bool) {\r\n        for (uint i = 0; i < queryDimensions.length; i++) {\r\n            if (keccak256(abi.encodePacked(queryDimensions[i])) == keccak256(abi.encodePacked(\"ProductName\")) && !allowedDimensions.ProductName) return false;\r\n            if (keccak256(abi.encodePacked(queryDimensions[i])) == keccak256(abi.encodePacked(\"Category\")) && !allowedDimensions.Category) return false;\r\n            if (keccak256(abi.encodePacked(queryDimensions[i])) == keccak256(abi.encodePacked(\"Supplier\")) && !allowedDimensions.Supplier) return false;\r\n            if (keccak256(abi.encodePacked(queryDimensions[i])) == keccak256(abi.encodePacked(\"MonthOfSale\")) && !allowedDimensions.MonthOfSale) return false;\r\n            if (keccak256(abi.encodePacked(queryDimensions[i])) == keccak256(abi.encodePacked(\"QuarterOfSale\")) && !allowedDimensions.QuarterOfSale) return false;\r\n            if (keccak256(abi.encodePacked(queryDimensions[i])) == keccak256(abi.encodePacked(\"BimonthOfSale\")) && !allowedDimensions.BimonthOfSale) return false;\r\n            if (keccak256(abi.encodePacked(queryDimensions[i])) == keccak256(abi.encodePacked(\"YearOfSale\")) && !allowedDimensions.YearOfSale) return false;\r\n            if (keccak256(abi.encodePacked(queryDimensions[i])) == keccak256(abi.encodePacked(\"City\")) && !allowedDimensions.City) return false;\r\n            if (keccak256(abi.encodePacked(queryDimensions[i])) == keccak256(abi.encodePacked(\"Province\")) && !allowedDimensions.Province) return false;\r\n            if (keccak256(abi.encodePacked(queryDimensions[i])) == keccak256(abi.encodePacked(\"Region\")) && !allowedDimensions.Region) return false;\r\n            if (keccak256(abi.encodePacked(queryDimensions[i])) == keccak256(abi.encodePacked(\"TypeOfSale\")) && !allowedDimensions.TypeOfSale) return false;\r\n        }\r\n        return true;\r\n    }\r\n\r\n    function executeQuery(string[] memory queryDimensions) public {\r\n        require(isQueryAllowed(queryDimensions), \"Query contains disallowed dimensions\");\r\n        \r\n        emit QueryCheck(msg.sender, queryDimensions);\r\n    }\r\n}\r\n",
  "sourcePath": "C:\\Users\\nicoc\\Documents\\Code\\Tesi\\Project_Carboni\\contracts\\DataFactModel.sol",
  "compiler": {
    "name": "solc",
    "version": "0.8.0+commit.c7dfd78e.Emscripten.clang"
  },
  "schemaVersion": "3.4.16",
  "updatedAt": "2025-05-11T15:45:21.780Z",
  "networkType": "ethereum",
  "devdoc": {
    "kind": "dev",
    "methods": {},
    "version": 1
  },
  "userdoc": {
    "kind": "user",
    "methods": {},
    "version": 1
  }
}