{
  "contractName": "HashStorage",
  "abi": [
    {
      "inputs": [],
      "name": "storedHash",
      "outputs": [
        {
          "internalType": "bytes32",
          "name": "",
          "type": "bytes32"
        }
      ],
      "stateMutability": "view",
      "type": "function",
      "constant": true
    },
    {
      "inputs": [
        {
          "internalType": "bytes32",
          "name": "_hash",
          "type": "bytes32"
        }
      ],
      "name": "setHash",
      "outputs": [],
      "stateMutability": "nonpayable",
      "type": "function"
    },
    {
      "inputs": [],
      "name": "getHash",
      "outputs": [
        {
          "internalType": "bytes32",
          "name": "",
          "type": "bytes32"
        }
      ],
      "stateMutability": "view",
      "type": "function",
      "constant": true
    }
  ],
  "bytecode": "0x608060405234801561001057600080fd5b50610176806100206000396000f3fe608060405234801561001057600080fd5b50600436106100415760003560e01c80630c4c428514610046578063b0da519514610062578063d13319c414610080575b600080fd5b610060600480360381019061005b91906100cc565b61009e565b005b61006a6100a8565b6040516100779190610104565b60405180910390f35b6100886100ae565b6040516100959190610104565b60405180910390f35b8060008190555050565b60005481565b60008054905090565b6000813590506100c681610129565b92915050565b6000602082840312156100de57600080fd5b60006100ec848285016100b7565b91505092915050565b6100fe8161011f565b82525050565b600060208201905061011960008301846100f5565b92915050565b6000819050919050565b6101328161011f565b811461013d57600080fd5b5056fea26469706673582212201f8ba14dfcf435a10ef377f40ccf065eb77bd9344dafdf43020c29dfa95648d764736f6c63430008000033",
  "immutableReferences": {},
  "source": "// contracts/HashStorage.sol\r\npragma solidity ^0.8.0;\r\n\r\ncontract HashStorage {\r\n    bytes32 public storedHash;\r\n\r\n    function setHash(bytes32 _hash) public {\r\n        storedHash = _hash;\r\n    }\r\n\r\n    function getHash() public view returns (bytes32) {\r\n        return storedHash;\r\n    }\r\n}\r\n",
  "sourcePath": "C:\\Users\\nicoc\\Documents\\Code\\Tesi\\Project_Carboni\\contracts\\HashStorage.sol",
  "compiler": {
    "name": "solc",
    "version": "0.8.0+commit.c7dfd78e.Emscripten.clang"
  },
  "schemaVersion": "3.4.16",
  "updatedAt": "2025-05-19T13:03:48.327Z",
  "networkType": "ethereum",
  "devdoc": {
    "kind": "dev",
    "methods": {},
    "version": 1
  },
  "userdoc": {
    "kind": "user",
    "methods": {},
    "version": 1
  }
}